:020000040800F2
:10000000C80C002085180008E11800084B340008CF
:10001000E1180008E1180008E118000800000000DD
:10002000000000000000000000000000E1180008CF
:10003000E118000800000000E1180008E1180008BD
:10004000E1180008E1180008E1180008E1180008AC
:10005000E1180008E1180008E1180008E11800089C
:10006000E1180008E1180008953E0008E1180008B2
:10007000E1180008E1180008E1180008E11800087C
:10008000E1180008E1180008E1180008E11800086C
:10009000E1180008E1180008E1180008E11800085C
:1000A000E1180008E1180008E1180008E11800084C
:1000B000E1180008E118000869020008E1180008CA
:1000C000E1180008E1180008E1180008E11800082C
:1000D000E1180008E1180008E1180008E11800081C
:1000E000E1180008E1180008E1180008E11800080C
:1000F000E1180008E1180008E1180008E1180008FC
:10010000E1180008E1180008E1180008E1180008EB
:10011000E1180008E1180008E1180008E1180008DB
:10012000E1180008E1180008E1180008E1180008CB
:10013000E1180008E1180008E1180008E1180008BB
:10014000E1180008E1180008E1180008E1180008AB
:10015000E1180008E1180008E1180008E11800089B
:10016000E1180008E1180008E1180008E11800088B
:10017000E1180008E1180008E1180008E11800087B
:10018000E1180008E118000880B582B000AF78607F
:10019000144B1B785A1CD1B2124A11707A68D1B232
:1001A000114AD1540F4B1B780F4A0021D1540D4BEB
:1001B0001B7801330F2B05D87B680A2B02D07B6894
:1001C000002B0CD1074B00221A70074B0420194654
:1001D000002203F02FF90346002B00D000BF0837A0
:1001E000BD4680BD880400207804002090B484B00F
:1001F00000AF02460B46FA71BB710023FB60BB796E
:1002000003F003039B000F2202FA03F3FB60154B7C
:10021000BA799208D2B21349B8798008C0B20230D4
:1002200051F82000F968C9430140023243F8221016
:100230000C4BBA799208D2B20A49B8798008C0B298
:10024000023051F82000FC79B97901F003018900EE
:1002500004FA01F10143023243F822101037BD467F
:1002600090BC70470038014080B500AF12480121B2
:1002700003F0D6FD0346002B1CD00F48012103F0EC
:10028000F9FD0E4B1A680D4B9B881A440B4B1A60F4
:100290000A4BDB68002B0DD0084BDA68074B9B88B4
:1002A000D21A064BDA60054BDB68002B02D1034BF8
:1002B0001B69984780BD00BF000800408C040020E7
:1002C00080B584B000AF1E233B7300237B730123F2
:1002D000BB730123FB7307F10C03184603F094FC76
:1002E0000420012101F074FD41F268033B800023EA
:1002F0007B800A237B6000233B810023BB723B464B
:100300001448194603F0DEFC12480121012203F0D3
:1003100063FD1048012103F03FFD0F4B0A221A81B3
:100320000D4B01229A800C4BD9680B4BDB680A4AB3
:100330009288B3FBF2F002FB00F29B1ACA18064B3C
:10034000DA60054B01229A71002318461037BD462A
:1003500080BD00BF000800408C04002080B500AFC5
:10036000FFF7AEFF054B00221A60044B00221A6112
:10037000024B0022DA600023184680BD8C04002066
:1003800080B483B000AF78607B68002B01D101237B
:1003900004E0054B1A687B681A60002318460C3786
:1003A000BD465DF8047B70478C04002080B485B0A6
:1003B00000AF78600C4B1B68FB600B4B9B79002BEC
:1003C00002D14FF0FF3308E000BF074B1A68FB680B
:1003D000D21A7B689A42F8D3002318461437BD46D8
:1003E0005DF8047B704700BF8C04002080B582B0AC
:1003F00000AF78607B681B68184603F05DFD03461C
:1004000018460837BD4680BD80B584B000AF0346AE
:10041000FB712B4B93F82430002B1ED0FB79002B63
:1004200002D00223FB7301E00023FB73244B5B68C3
:100430001978234B1B685A7C07F10F0308461146B5
:10044000012203F09DF80346002B02D04FF0FF334A
:1004500032E0FA7B1A4B5A742DE0194B9B7A002B31
:1004600002D14FF0FF3327E0FB79002B05D0144B6E
:100470005B7C002B01D000231EE0FB79002B02D017
:100480000123FB7301E00023FB730D4B5B681978BC
:100490000B4B1B685A7C07F10F03084611460122DB
:1004A00003F06EF80346002B02D04FF0FF3303E059
:1004B000FA7B034B5A74002318461037BD4680BDA3
:1004C0000000002080B584B000AF786080233B72CC
:1004D000544B5B681978534B1B685A7D07F108032E
:1004E00008461146012203F04BF80346002B02D0C8
:1004F0004FF0FF3392E06420FFF758FF00233B7278
:10050000484B5B681978474B1B685A7D07F1080315
:1005100008461146012203F033F80346002B02D0AF
:100520004FF0FF337AE03F4B0022DA743D4BFF225D
:100530009A723C4BFF221A723A4BFF225A72394B85
:10054000FF22DA72374B4FF6FF72DA81354BFF220A
:100550001A74344BFF229A74324B01221A73314BB6
:10056000012283F822202F4B002283F823202D4BD9
:1005700000225A752B4B00221A752B4800210C22A1
:1005800003F0A2FF274B002283F82420254B0022F2
:1005900083F82520234B0022DA844FF4FA6000F020
:1005A0000DFA0346002B02D04FF0FF3336E0022055
:1005B00000F092FA0346002B02D04FF0FF332DE0FB
:1005C0002A2000F0F3FA0346002B02D04FF0FF334D
:1005D00024E0322000F054FB0346002B02D04FF001
:1005E000FF331BE0002000F0B3FB0346002B02D0DA
:1005F0004FF0FF3312E07B68002B02D07868FFF7E2
:10060000F5FE002000F098FE0346002B02D04FF0CC
:10061000FF3303E0002000F0EDFB00231846103705
:10062000BD4680BD000000201600002080B584B0CB
:1006300000AF0346FB80FB88002B1ED1002000F09A
:100640004DFF00233B7307237B73344B5B681978A2
:10065000324B1B685A7D07F10C03084611460222F3
:1006600002F08EFF0346002B02D04FF0FF3351E023
:100670002A4B00221A7500234CE0012000F02EFFC7
:1006800020233B73FB88012B05D100237B730520BE
:1006900000F08CFA16E0FB88052B05D801237B734C
:1006A000052000F083FA0DE0FB88142B05D8022307
:1006B0007B730A2000F07AFA04E003237B73142092
:1006C00000F074FA7B7B9B01DBB243F00703DBB2E3
:1006D000DBB27B73114B5B681978104B1B685A7D3A
:1006E00007F10C0308461146022202F049FF0346B7
:1006F000002B02D04FF0FF330CE0084B08229A7217
:10070000064B00221A73054B01221A75002000F0D7
:100710001FFB002318461037BD4680BD0000002097
:1007200080B582B000AF894B9B7A002B02D14FF08D
:10073000FF3307E10023FB71844B5B681978834B1F
:100740001B685A7CFB1D08461146012202F018FF67
:100750000346002B02D04FF0FF33F3E07B4B5B6886
:1007600019787A4B1B685A79FB1D084611460122FD
:1007700002F006FF0346002B02D04FF0FF33E1E00A
:10078000724B5B681978714B1B681A79FB1D084620
:100790001146012202F0F4FE0346002B02D04FF076
:1007A000FF33CFE0694B93F82430002B64D00C2347
:1007B000FB71664B5B681978644B1B681A79FB1DEB
:1007C00008461146012202F0DBFE0346002B02D050
:1007D0004FF0FF33B6E03220FFF7E8FDC023FB7196
:1007E0005A4B9B7A03F00103002B04D0FB7943F0B2
:1007F0002003DBB2FB71554B5B681978534B1B68C8
:100800001A79FB1D08461146012202F0B9FE034683
:10081000002B02D04FF0FF3394E04C4B5B7C002B5D
:1008200002D00223FB7101E00023FB71474B5B68A0
:100830001978464B1B685A7CFB1D0846114601225D
:1008400002F09EFE0346002B02D04FF0FF3379E00A
:100850000023FB713D4B5B6819783C4B1B685A7950
:10086000FB1D08461146012202F08AFE0346002BBA
:1008700067D04FF0FF3365E00423FB71334B5B68B7
:100880001978324B1B681A79FB1D08461146012264
:1008900002F076FE0346002B02D04FF0FF3351E00A
:1008A0002A4B9B7C002B05D1284B9B7A03F001033C
:1008B000002B02D14023FB7101E06023FB71234B2D
:1008C0005B681978214B1B681A79FB1D0846114695
:1008D000012202F055FE0346002B02D04FF0FF33F9
:1008E00030E03220FFF762FD184B5B7C002B02D01A
:1008F0000123FB7101E00023FB71144B5B68197845
:10090000124B1B685A7CFB1D08461146012202F05F
:1009100037FE0346002B02D04FF0FF3312E00B4BA3
:100920005B681A78094B1B685B79104619460122EF
:10093000074B02F025FE0346002B02D04FF0FF3399
:1009400000E0002318460837BD4680BD00000020A7
:100950001000002080B483B000AF7860164B1B7A83
:10096000032B1ED801A252F823F000BF7D09000816
:10097000850900088F090008990900087B68FA2298
:100980001A8012E07B684FF4FA721A800DE07B68DF
:100990004FF47A721A8008E07B684FF4FA621A808A
:1009A00003E07B6800221A8000BF002318460C3742
:1009B000BD465DF8047B70470000002080B584B020
:1009C00000AF0346FB80264B9B7A002B02D14FF0F1
:1009D000FF3341E0FB88B3F5FA7F0FD0B3F5FA7F20
:1009E00002DCFA2B07D012E0B3F57A7F09D0B3F519
:1009F000FA6F09D00BE00023FB730BE00823FB73B5
:100A000008E01023FB7305E01823FB7302E04FF0AE
:100A1000FF3321E0124B1A7AFB7BDB08DBB29A42F0
:100A200001D1002318E00E4B5B6819780C4B1B6852
:100A30009A7907F10F0308461146012202F0A0FD42
:100A40000346002B02D04FF0FF3305E0FB7BDB08B1
:100A5000DAB2034B1A72002318461037BD4680BD28
:100A60000000002080B483B000AF7860194B5B7A3F
:100A7000032B1BD801A252F823F000BF8D0A0008F7
:100A8000950A00089D0A0008A50A00087B68022252
:100A90001A700EE07B6804221A700AE07B68082254
:100AA0001A7006E07B6810221A7002E04FF0FF33E4
:100AB0000AE0084BDB7C002B05D07B681B785B00D1
:100AC000DAB27B681A70002318460C37BD465DF811
:100AD000047B70470000002080B584B000AF03465F
:100AE000FB71314B9B7A002B02D14FF0FF3356E064
:100AF000FB79023B0E2B2DD801A252F823F000BF48
:100B00003D0B0008550B0008430B0008550B00086F
:100B1000550B0008550B0008490B0008550B000841
:100B2000550B0008550B0008550B0008550B000825
:100B3000550B0008550B00084F0B00080023FB73F2
:100B40000BE00823FB7308E01023FB7305E0182378
:100B5000FB7302E04FF0FF3321E0134B5A7AFB7B2B
:100B6000DB08DBB29A4201D1002318E00E4B5B6830
:100B700019780D4B1B68DA7907F10F030846114607
:100B8000012202F0FDFC0346002B02D04FF0FF33A0
:100B900005E0FB7BDB08DAB2034B5A7200231846F0
:100BA0001037BD4680BD00BF0000002080B584B076
:100BB00000AF0346FB80244B9B7A002B02D14FF001
:100BC000FF333DE0FB88BB2B02D90123FB7319E007
:100BD000FB88612B02D90223FB7313E0FB88292BCE
:100BE00002D90323FB730DE0FB88132B02D90423E6
:100BF000FB7307E0FB88092B02D90523FB7301E097
:100C00000623FB73104BDA7AFB7B9A4201D1002357
:100C100016E00D4B5B6819780B4B1B689A7807F14F
:100C20000F0308461146012202F0AAFC0346002BDE
:100C300002D04FF0FF3303E0FA7B034BDA7200235C
:100C400018461037BD4680BD0000002080B483B038
:100C500000AF7860094B93F82430002B02D04FF09E
:100C6000FF3304E0054BDA897B681A8000231846BD
:100C70000C37BD465DF8047B704700BF00000020C4
:100C800080B584B000AF0346FB80304B9B7A002BCD
:100C900002D14FF0FF3354E02C4B93F82430002B5B
:100CA00002D04FF0FF334CE0284B1B7D002B0ED0C1
:100CB000FB88002B08D0FB88282B05D8FB8818461A
:100CC000FFF7B4FC00233CE00020FFF7AFFCFB88FB
:100CD000032B02D80423FB8006E0FB88B3F57A7F60
:100CE00002D94FF47A73FB80FB884FF47A7292FB3F
:100CF000F3F3DBB2013BDBB2FB73144B5B68197897
:100D0000124B1B685A7807F10F030846114601225F
:100D100002F036FC0346002B02D04FF0FF3310E008
:100D2000FB7B01334FF47A7292FBF3F39AB2074BD9
:100D3000DA81064BDB895B089BB21846FFF736FF6A
:100D4000002318461037BD4680BD00BF00000020BC
:100D500080B584B000AF0346FB710023FB60FB79D4
:100D600023F00103FB71224B93F82430002B01D0B8
:100D7000002338E01E4B9B7A002B02D14FF0FF334B
:100D800031E01B4B1B7CFB72194B9A7AFB791340A9
:100D9000DAB2174B1A74164B1B7CFA799A4203D0BD
:100DA0004FF0FF33FB6001E00023FB60FB79002B79
:100DB00003D10F4B1B7D002B03D00120FFF724FB39
:100DC00002E00020FFF720FBFB79002B0AD0FFF7A1
:100DD000A7FC0346002B05D0054BFA7A1A744FF096
:100DE000FF3300E0FB6818461037BD4680BD00BFEA
:100DF0000000002080B584B000AF0346FB71FB7992
:100E000003F07003002B02D00123FB7307E0FB7992
:100E1000002B02D00023FB7301E04023FB73394B0E
:100E20005B681978374B1B685A7D07F10F0308463A
:100E30001146012202F0A4FB0346002B05D0314BE2
:100E400000229A724FF0FF3358E0FB7B23F04003FF
:100E5000DAB22C4B1A730023FB73FB7903F04003C7
:100E6000002B04D1FB7B43F00403DBB2FB73FB7963
:100E700003F02003002B04D1FB7B43F00203DBB221
:100E8000FB73FB7903F01003002B04D1FB7B43F0D1
:100E90000103DBB2FB73FB7903F00803002B04D1E1
:100EA000FB7B43F03803DBB2FB73164B5B681978AE
:100EB000144B1B689A7D07F10F0308461146012267
:100EC00002F05EFB0346002B05D00E4B00229A7207
:100ED0004FF0FF3312E0FB79002B05D0FB79082B94
:100EE00002D0002000F0FAFA064BFA799A72054B0C
:100EF00000221A753220FFF759FA002318461037DE
:100F0000BD4680BD0000002080B58AB000AFF8600B
:100F1000B9607A603B60002387F827300023BB84E8
:100F2000504B93F82430002B02D04FF0FF3379E17F
:100F30003B6800221A704B4B9B7A002B02D14FF07A
:100F4000FF336FE1474B1B7C002B02D14FF0FF3387
:100F500068E1444B1B7C03F04003002B04D097F85E
:100F60002730023387F827303E4B1B7C03F02003E9
:100F7000002B04D097F82730023387F82730394BFD
:100F80001B7C03F01003002B04D097F827300233AA
:100F900087F82730334B1B7C03F00803002B04D069
:100FA00097F82730063387F827302E4B5B6819787F
:100FB0002C4B1B681A7B07F11403084611460222CA
:100FC00002F09CFA0346002B02D04FF0FF3329E1D8
:100FD0003B7D1B029AB27B7D13439BB27B8497F8C7
:100FE00027309BB27A8C9A4201D200231AE11D4B22
:100FF0005B685B885B089BB27A8C9A421CD9194B60
:101000005B681978174B1B68DA7C07F114030846F4
:101010001146012202F072FA0346002B02D04FF073
:10102000FF33FFE03B7D03F01003002B04D0FFF7FC
:1010300077FB6FF00103F5E07868FFF7A1F9094B42
:101040005B681878074B1B68597B97F8272007F1D6
:10105000140302F053FA0346002B05D04FF0FF3380
:10106000E0E000BF000000207A8C97F8273092FB68
:10107000F3F3DBB2013BDAB23B6B1A703B68002240
:101080001A7097F827309BB2BA8C9A424CD0674BB3
:101090001B7C03F00803002B46D0BB8C07F1280013
:1010A000034413F8143C1B029AB2BB8C013307F1C2
:1010B00028010B4413F8143C13439AB2BB681A80FE
:1010C000BB680233BA8C023207F12800024412F8DE
:1010D000142C120291B2BA8C033207F12800024498
:1010E00012F8142C0A4392B21A80BB680433BA8CEB
:1010F000043207F128010A4412F8142C120291B2AA
:10110000BA8C053207F12800024412F8142C0A4365
:1011100092B21A803B681B7843F00803DAB23B684E
:101120001A70BB8C0633BB8497F827309BB2BA8CFD
:101130009A4222D03D4B1B7C03F04003002B1CD075
:10114000BB8C07F128010B4413F8143C1B029AB224
:10115000BB8C013307F12800034413F8143C1343FC
:101160009AB2FB681A803B681B7843F04003DAB2FE
:101170003B681A70BB8C0233BB8497F827309BB254
:10118000BA8C9A4223D0294B1B7C03F02003002BFE
:101190001DD0FB680233BA8C07F128010A4412F80B
:1011A000142C120291B2BA8C013207F128000244C9
:1011B00012F8142C0A4392B21A803B681B7843F051
:1011C0002003DAB23B681A70BB8C0233BB8497F8F9
:1011D00027309BB2BA8C9A4223D0144B1B7C03F06D
:1011E0001003002B1DD0FB680433BA8C07F12801D3
:1011F0000A4412F8142C120291B2BA8C013207F18F
:101200002800024412F8142C0A4392B21A803B6858
:101210001B7843F01003DAB23B681A70BB8C0233C0
:10122000BB84002318462837BD4680BD000000203F
:1012300080B586B000AF0346B9607A60FB813D4B54
:1012400093F82430002B02D14FF0FF336EE0394B7E
:101250009B7A002B02D14FF0FF3367E0354B5B6880
:101260001978344B1B681A7B07F1140308461146A2
:10127000022202F043F90346002B02D04FF0FF3365
:1012800054E03B7D1B029AB27B7D13439BB2FB82F1
:10129000FA8AFB899A4205D27B6800221A704FF0C5
:1012A000FF3343E0234B5B685B885B089BB2FA8AA1
:1012B0009A421CD91F4B5B6819781E4B1B68DA7C5D
:1012C00007F1140308461146012202F017F90346FC
:1012D000002B02D04FF0FF3328E03B7D03F01003DA
:1012E000002B04D0FFF71CFA6FF001031EE0114B36
:1012F0005B6819780F4B1B685A7BFB89DBB2084689
:1013000011461A46BB6802F0F9F80346002B02D0DA
:101310004FF0FF330AE0FA8AFB89B2FBF3F39BB28A
:10132000DBB2013BDAB27B681A700023184618372B
:10133000BD4680BD0000002080B584B000AF0346EC
:10134000FB71654B9B7CFA799A4201D10023BEE088
:10135000FB79002B56D0604B5B6819785E4B1B689D
:101360001A7907F10F0308461146012202F0C6F868
:101370000346002B02D04FF0FF33A8E0FB7B23F0A5
:101380002003DBB2FB73544B5B681978524B1B682C
:101390001A7907F10F0308461146012202F0F0F80E
:1013A0000346002B02D04FF0FF3390E00320FEF7FE
:1013B000FDFF0223FB73484B93F82230002B04D02F
:1013C000FB7B63F07F03DBB2FB73434B93F823306B
:1013D000002B04D0FB7B43F03003DBB2FB733E4BAE
:1013E0005B6819783C4B1B68DA7D07F10F030846F0
:1013F0001146012202F0C4F80346002B63D04FF0DF
:10140000FF3364E0344B5B681978334B1B681A79FF
:1014100007F10F0308461146012202F06FF8034658
:10142000002B02D04FF0FF3351E02B4B9B7A03F09F
:101430000103002B05D0FB7B43F02003DBB2FB73E1
:1014400004E0FB7B23F02003DBB2FB73224B5B68E1
:101450001978214B1B681A7907F10F0308461146CA
:10146000012202F08DF80346002B02D04FF0FF332B
:101470002DE00320FEF79AFF174B93F82230002B44
:1014800002D08023FB7301E00023FB73124B93F81F
:101490002330002B04D0FB7B43F03003DBB2FB7323
:1014A0000D4B5B6819780C4B1B68DA7D07F10F0355
:1014B00008461146012202F063F80346002B02D0D1
:1014C0004FF0FF3303E0044BFA799A740023184677
:1014D0001037BD4680BD00BF0000002080B584B03D
:1014E00000AF0346FB711F4B93F82330FA799A4201
:1014F00001D1002332E0FB79002B02D03023FB73B3
:1015000001E00023FB73174B9B7C002B04D0FB7B7B
:1015100043F00203DBB2FB73124B93F82230002B33
:1015200004D0FB7B63F07F03DBB2FB730D4B5B6886
:1015300019780C4B1B68DA7D07F10F03084611463A
:10154000012202F01DF80346002B02D04FF0FF33BA
:1015500004E0044BFA7983F823200023184610375F
:10156000BD4680BD0000002080B584B000AF0B46B2
:101570003A600246FA80BB803B68002B02D14FF0F4
:10158000FF3342E0234B9B7A002B02D14FF0FF3315
:101590003BE0FB881B0A9BB2DBB23B73FB88DBB2F0
:1015A0007B737B7B1A46BB881A441A4B5B685B894A
:1015B0009A4202DD4FF0FF3327E0164B5B68197843
:1015C000144B1B68DA7E07F10C0308461146022211
:1015D00001F0D6FF0346002B02D04FF0FF3314E09A
:1015E0000C4B5B6819780B4B1B681A7EBB88DBB20F
:1015F000084611461A463B6801F0C2FF0346002B1D
:1016000002D04FF0FF3300E0002318461037BD46EC
:1016100080BD00BF0000002080B584B000AF0B4645
:101620003A600246FA80BB803B68002B02D14FF043
:10163000FF3342E0234B9B7A002B02D14FF0FF3364
:101640003BE0FB881B0A9BB2DBB23B73FB88DBB23F
:101650007B737B7B1A46BB881A441A4B5B685B8999
:101660009A4202DD4FF0FF3327E0164B5B68197892
:10167000144B1B68DA7E07F10C0308461146022260
:1016800001F07EFF0346002B02D04FF0FF3314E041
:101690000C4B5B6819780B4B1B681A7EBB88DBB25E
:1016A000084611461A463B6801F028FF0346002B06
:1016B00002D04FF0FF3300E0002318461037BD463C
:1016C00080BD00BF0000002080B58AB000AFB960C7
:1016D0000146F981BA81FB803E4B93F82530002BFF
:1016E00002D04FF0FF3370E0BB68002B02D14FF007
:1016F000FF336AE00023FB8440E0FA89FB8CD31AB5
:10170000102BA8BF1023BB84FB8CBA681344F98C40
:10171000BA8C084611461A46FFF726FF0346002BEF
:1017200002D04FF0FF3350E00120FEF73FFEF98C6E
:10173000BA8C07F11403084611461A46FFF76CFFEE
:101740000346002B02D04FF0FF333EE0FB8CBA681B
:10175000D118BB8C07F11402084611461A4602F054
:101760007FFE0346002B02D06FF001032DE0012025
:10177000FEF71CFEFA8CBB8C1344FB84FA8CFB89AD
:101780009A42BAD3BB891B0A9BB2DBB23B74BB89BA
:10179000DBB27B740F4B5B6819780E4B1B685A7F6A
:1017A00007F1100308461146022201F0E9FE034644
:1017B000002B02D04FF0FF3307E0064B012283F8E5
:1017C0002520044BFA88DA84002318462837BD46C2
:1017D00080BD00BF0000002080B584B000AF03468C
:1017E000FB71274B93F82430FA799A4201D10023F8
:1017F00042E0FB79002B28D0214B93F82530002BB9
:1018000002D14FF0FF3337E00020FEF7FDFD00204E
:10181000FFF792FD1A4BDB8C1846FFF731FA0023D5
:10182000FB73174B5B681A7807F10F0310462321EF
:10183000012201F0A5FE124B012283F82420012091
:10184000FEF7E2FDFEF76CFF15E00020FEF7DCFD81
:101850000B4B1B7CFB730A4B5B681A7807F10F0379
:1018600010462321012201F08BFE054B002283F854
:101870002420FEF755FF002318461037BD4680BDD3
:101880000000002080B582B000AF104B7B60104B91
:101890003B6007E03B681A1D3A607A68111D796069
:1018A00012681A603A680B4B9A42F3D30A480B4904
:1018B0004FF000028842B8BF40F8042BFFF6FAAFA1
:1018C00000F098F80837BD4680BD00BFDC52000824
:1018D000000000207804002078040020C4040020C8
:1018E00080B400AFFEE700BF80B485B000AF786081
:1018F0007B681B785BB2002B02DD0023FB812DE0AF
:101900007B681B785BB2002B02DA0423FB8125E0A5
:101910007B6801331B785BB2002B02DD0123FB8166
:101920001CE07B6801331B785BB2002B02DA0523D5
:10193000FB8113E07B6802331B785BB2002B02DD76
:101940000223FB810AE07B6802331B785BB2002B29
:1019500002DA0623FB8101E00723FB81FB8918469D
:101960001437BD465DF8047B704700BF80B584B076
:1019700000AF78607868FFF7B7FF0346FB817B68AC
:1019800003331846FFF7B0FF0346DB009AB2FB892A
:1019900013439BB2FB817B6806331846FFF7A4FF15
:1019A00003469B019AB2FB8913439BB2FB81FB89DF
:1019B00018461037BD4680BD80B400AFBD465DF807
:1019C000047B704780B400AF034B01229A70BD4680
:1019D0005DF8047B704700BFA004002080B500AF15
:1019E000FFF7EAFFFEF7BAFC01F03CFD02F074FAE3
:1019F00080BD00BF90B593B002AFFFF7EFFF814B02
:101A0000FB6207F12C031846FEF75CFDFB6B002B15
:101A100001D0FFF7D1FF7820FFF7ECF97820FFF72E
:101A200097F96420FFF72CF907F138031846FFF700
:101A30000DF93B8F7448194600F0FCFC07F13603A2
:101A40001846FEF787FFFB8E7048194600F0F2FC3F
:101A500007F13B031846FFF705F897F83B306C4851
:101A6000194600F0E7FC6B4800210A2202F02CFD29
:101A7000684B03221A70674B04229A8000F032FDF3
:101A800003466548194600F0D5FC6448FFF76EFF31
:101A90000346184600F036FD5E4B4FF4B872DA800C
:101AA0005C4BDB88184601F095F8642000F014FECA
:101AB0000120FFF791FE574B01225A7007F12403D2
:101AC00018460021032202F0FFFC07F11C03184610
:101AD0000021032202F0F8FC0023BB6007F1300371
:101AE0001846FEF74DFC4B4B9B78DBB2002B52D0D7
:101AF000484B5B78002B4ED007F1240007F11C0106
:101B000007F108023B1D07F11A04009407F11904BC
:101B1000019401F04FFA7B7E002B02D13D4B002255
:101B20009A707B8B9BB203F07003002B08D0BB8CA8
:101B300019B2FB8C1AB23B8D1BB2394800F07AFC0B
:101B40007B8B9BB203F00803002B08D0BB8B19B230
:101B5000FB8B1AB23B8C1BB2324800F06BFC7B8BC8
:101B60009BB203F48073002B14D0BB682E48194637
:101B700000F060FCFB682D48194600F05BFC3B69F7
:101B80002B48194600F056FC7B692A48194600F09C
:101B900051FC36E035E01F4B9B78DBB2002B30D098
:101BA00007F1240007F11C013A1D07F11A0307F1A0
:101BB00019040094FFF7A8F97B7E002B02D1154B86
:101BC00000229A707B8B9BB203F07003002B08D02D
:101BD000BB8C19B2FB8C1AB23B8D1BB2164800F0BD
:101BE00029FC7B8B9BB203F00803002B09D0BB8B35
:101BF00019B2FB8B1AB23B8C1BB2104800F01AFCD6
:101C00005CE75BE7C5190008B0450008BC45000863
:101C1000CC450008A0040020DC4500082C00002072
:101C2000E4450008004600081C4600082C46000851
:101C3000344600083C460008444600085C4600085C
:101C400080B489B000AF78600023BB6100237B6162
:101C50000023FB6102233B610023FB600223BB6086
:101C6000484B9B6803F00C03BB61BB69042B07D096
:101C7000082B09D0002B3FD17B68434A1A603FE014
:101C80007B68424A1A603BE03E4B5B6803F480038A
:101C90009B0DFB603B4B5B6803F03F03BB60FB6845
:101CA000002B0DD0394ABB68B2FBF3F2354B5968B3
:101CB00047F6C0730B409B0903FB02F3FB610CE08A
:101CC000314ABB68B2FBF3F22E4B596847F6C0733A
:101CD0000B409B0903FB02F3FB612A4B5B6803F497
:101CE00040331B0C01335B003B61FA693B69B2FB7B
:101CF000F3F27B681A6003E07B68234A1A6000BF36
:101D0000204B9B6803F0F003BB61BB691B09BB61FF
:101D10001F4ABB6913441B78DBB27B617B681A687E
:101D20007B69DA407B685A60164B9B6803F4E0538A
:101D3000BB61BB699B0ABB61154ABB6913441B7835
:101D4000DBB27B617B685A687B69DA407B689A60AA
:101D50000C4B9B6803F46043BB61BB695B0BBB61CD
:101D60000B4ABB6913441B78DBB27B617B685A6802
:101D70007B69DA407B68DA602437BD465DF8047B16
:101D8000704700BF003802400024F40040787D0115
:101D90003800002080B483B000AF78600B46FB7041
:101DA000FB78002B06D0094B084A116B7A680A436E
:101DB0001A6306E0054B054A116B7A68D2430A4064
:101DC0001A630C37BD465DF8047B7047003802404B
:101DD00080B483B000AF78600B46FB70FB78002BBB
:101DE00006D0094B084A116C7A680A431A6406E067
:101DF000054B054A116C7A68D2430A401A640C37C5
:101E0000BD465DF8047B70470038024080B483B063
:101E100000AF78600B46FB70FB78002B06D0094BB7
:101E2000084A516C7A680A435A6406E0054B054A31
:101E3000516C7A68D2430A405A640C37BD465DF84B
:101E4000047B70470038024080B582B000AF034683
:101E5000FB71FB791846FEF797F90837BD4680BD40
:101E600080B483B000AF78600B46FB707B68FA7873
:101E70001A70012318460C37BD465DF8047B704785
:101E800080B485B000AF786039600023FB600AE061
:101E90007B685A1C7A603A68511C396012781A7053
:101EA000FB680133FB603B681B78002BF0D1FB68BB
:101EB00018461437BD465DF8047B704780B586B080
:101EC00000AFF8607A603B600B46FB7200237B61D9
:101ED0007B68013B7B603B68092B10D93A681E4B3D
:101EE000A3FB0213DB08FA7AF86811467A68FFF759
:101EF000E5FF78617B69FA681344FB6011E00DE04F
:101F0000FB7AF8681946FFF7ABFFFB680133FB600B
:101F10007B6901337B617B68013B7B607B68002BC5
:101F2000EEDC39680C4BA3FB0123DA0813469B0057
:101F300013445B00CA1AD3B23033DBB2F8681946D7
:101F4000FFF78EFF03467A6913447B617B6918466D
:101F50001837BD4680BD00BFCDCCCCCC80B586B097
:101F600000AFF8607A603B600B46FB7200237B6138
:101F70003B68002B03DA3B685B423B6101E03B6856
:101F80003B617B68013B7B603B69092B21D93B6846
:101F9000002B0DDA3A692F4BA3FB0213DB085B42DF
:101FA000FA7AF86811467A68FFF7D8FF78610BE093
:101FB0003A69284BA3FB0213DB08FA7AF86811464A
:101FC0007A68FFF7CBFF78617B69FA681344FB609E
:101FD00026E03B68002B03DA7B68013B7B600EE068
:101FE0000DE0FB7AF8681946FFF73AFFFB6801330A
:101FF000FB607B6901337B617B68013B7B607B68B5
:10200000002BEEDC3B68002B0ADAF8682D21FFF785
:1020100027FF03467A6913447B61FB680133FB6049
:1020200039690C4BA3FB0123DA0813469B001344C8
:102030005B00CA1AD3B23033DBB2F8681946FFF737
:102040000FFF03467A6913447B617B691846183792
:10205000BD4680BDCDCCCCCC80B588B002AFF86099
:102060007A600A46FA72BB7200237B617B68013B8F
:102070007B603B6A1B09002B12D03B6A1909FA7A74
:10208000BB7A0091F86811467A68FFF7E5FF0346CE
:102090007A6913447B617B69FA681344FB6011E041
:1020A0000DE0FB7AF8681946FFF7DAFEFB680133AA
:1020B000FB607B6901337B617B68013B7B607B68F4
:1020C000002BEEDC3B6A03F00F03092B0BD83B6AB5
:1020D000DBB203F00F03DBB23033DBB2F868194632
:1020E000FFF7BEFE19E0BB7A002B0BD03B6ADBB2D8
:1020F00003F00F03DBB23733DBB2F8681946FFF7A2
:10210000AFFE0AE03B6ADBB203F00F03DBB25733EA
:10211000DBB2F8681946FFF7A3FE7B6901337B61E8
:102120007B6918461837BD4680BD00BF80B58AB0B0
:1021300002AFF860B9607A603B600023BB610023A6
:102140007B61FB68002B03D0FB6800221A70F8E06B
:10215000F7E07B681B78252B0BD0FB685A1CFA60D4
:102160007A68511C796012781A707B6901337B613F
:10217000E7E07B6801331B78252B0BD1FB685A1CE9
:10218000FA6025221A707B6802337B607B69013319
:102190007B61D6E02023FB770023BB777B6801338C
:1021A0007B607B681B78302B05D13023FB777B6805
:1021B00001337B600FE00EE0BB7F1A4692001344B0
:1021C0005B00DAB27B681B781344DBB2303BBB7731
:1021D0007B6801337B607B681B782F2B03D97B687E
:1021E0001B78392BE8D9BA7F7B6913441A46BB6840
:1021F0009A4205D9BB68DAB27B69DBB2D31ABB77E6
:102200007B681B78583B202B00F28D8001A252F88E
:1022100023F000BFE122000827230008272300083D
:102220002723000827230008272300082723000866
:102230002723000827230008272300082723000856
:1022400011230008992200082723000827230008EB
:1022500027230008272300089922000827230008C5
:102260002723000827230008272300082723000826
:102270002723000827230008272300082723000816
:10228000FD22000827230008AF22000827230008AA
:1022900027230008C5220008BA7F3B68191D396052
:1022A0001B68F97FF868FFF759FEB8613EE0BA7F16
:1022B0003B68191D39601B68F97FF868FFF7FEFD60
:1022C000B86133E0BA7F3B68191D39601968FB7F3C
:1022D0000091F86819460023FFF7BEFEB86125E0BB
:1022E000BA7F3B68191D39601968FB7F0091F86857
:1022F00019460123FFF7B0FEB86117E03B681A1DCD
:102300003A601B68F8681946FFF7BAFDB8610DE03E
:102310003B681A1D3A601B68DBB2F8681946FFF784
:102320009FFDB86102E04FF0FF3325E07B68013389
:102330007B60BB69FA681344FB607A69BB6913442C
:102340007B617B681B78002B04D07A69BB689A425A
:10235000FFF4FFAE7A69BB689A4203D2FB680022A1
:102360001A7008E0FB68013BFB60FB6800221A70F2
:102370007B69013B7B617B6918462037BD4680BD88
:1023800080B584B000AFF860B9607A60F868642105
:10239000BA687B68FFF7CAFE034618461037BD4689
:1023A00080BD00BFB0B5A6B000AFF860B9607A607C
:1023B000144B07F110041D460FCD0FC40FCD0FC4F1
:1023C0002B68236007F134031846B9687A68FFF771
:1023D000D7FF0346632B09DD0B4B1B68DB6807F156
:1023E00010021046194600F059F8FEE707F13403D1
:1023F0001846F96800F052F8034618469837BD466B
:10240000B0BD00BF744600087004002080B582B0E3
:1024100000AF78603960064B1B689B681846796886
:102420003A68FFF7BFFF034618460837BD4680BD30
:10243000700400200FB480B582B000AF07F1140320
:102440003B6038693968FFF7E1FF78607B681846C0
:102450000837BD46BDE8804004B0704780B582B003
:1024600000AF786039600C4B1B689A683B689A42F1
:1024700005D0094B1B68DA683B689A4206D17B6835
:10248000DBB21846FFF7E0FC7B6801E04FF0FF335A
:1024900018460837BD4680BD7004002080B584B062
:1024A00000AF786039600023FB6012E07B681B7826
:1024B00018463968FFF7D2FF0346B3F1FF3F02D158
:1024C0004FF0FF330AE0FB680133FB607B680133A8
:1024D0007B607B681B78002BE8D1FB6818461037BF
:1024E000BD4680BD80B500AF4FF4806340F6F63046
:1024F00003491A46C823FFF7E7F80346184680BD8C
:102500009846000880B588B000AF0346FB806D4A4E
:1025100007F114031188927819809A706A4A07F1BA
:1025200010031188927819809A70684A07F10C0399
:102530001188927819809A70654A07F1080311880A
:10254000927819809A70FB8803F0030307F1200248
:10255000134413F80C3C3B77FB88DB089BB203F079
:10256000030307F12002134413F80C3C7B77FB882C
:102570009B099BB203F0030307F12002134413F8F5
:102580000C3CBB77FB8803F0030307F120021344E4
:1025900013F8103C3B76FB88DB089BB203F0030387
:1025A00007F12002134413F8103C7B76FB889B094B
:1025B0009BB203F0030307F12002134413F8103C0D
:1025C000BB7607F11C0340F2264003211A46FEF7B2
:1025D000CBFF0346002B02D04FF0FF336EE007F134
:1025E000180340F22A4003211A46FEF7BDFF0346B6
:1025F000002B02D04FF0FF3360E007F11C0307F11E
:102600000C021268114619800233120C1A7007F17D
:10261000180307F108021268114619800233120CE0
:102620001A70FB8803F00403002B09D03B7F43F0B2
:102630000103DBB23B773B7E43F00103DBB23B7629
:10264000FB8803F02003002B09D07B7F43F00103BC
:10265000DBB27B777B7E43F00103DBB27B76FB88CA
:1026600003F48073002B09D0BB7F43F00103DBB27E
:10267000BB77BB7E43F00103DBB2BB7607F11C03E3
:102680004FF4886003211A46FEF76EFF0346002BC5
:1026900002D04FF0FF3311E007F1180340F2314050
:1026A00003211A46FEF760FF0346002B02D04FF0CD
:1026B000FF3303E0074BFA881A81002318462037BE
:1026C000BD4680BD90520008945200089852000800
:1026D0009C520008AC04002080B588B000AF0346CF
:1026E000FB80204A07F1100310685168926807C305
:1026F000FB88C82B02D94FF0FF332EE0FB88C8229D
:1027000092FBF3F39BB2013BFB83FB8B1B0A9BB257
:10271000DBB23B72FB8BDBB27B7207F1080340F24A
:10272000162002211A46FEF71FFF0346002B02D097
:102730004FF0FF3311E007F1100340F6C1200C21E8
:102740001A46FEF711FF0346002B02D04FF0FF336D
:1027500003E0054BFA889A81002318462037BD46CE
:1027600080BD00BFA0520008AC04002080B586B038
:1027700000AF02460B46FA71BB80FB7903F00703FA
:10278000002B03D0BB88B3F5C86F02D94FF0FF33DD
:1027900006E1BB88184601F09BFC034618468249B7
:1027A00001F0A2FD03463B6107F10B031846FEF75B
:1027B00059F9FB7A023B0E2B78D801A252F823F08C
:1027C000FD270008AD28000829280008AD280008CA
:1027D000AD280008AD28000855280008AD280008DD
:1027E000AD280008AD280008AD280008AD28000875
:1027F000AD280008AD2800088128000838694FF08E
:102800008D4101F0BDFC0346184601F009FE034668
:10281000FB823869654901F0B3FC0346184601F0B4
:10282000FFFD0346BB8244E038694FF08C4101F064
:10283000A7FC0346184601F0F3FD0346FB82386906
:102840005B4901F09DFC0346184601F0E9FD034693
:10285000BB822EE038694FF08B4101F091FC0346BA
:10286000184601F0DDFD0346FB823869514901F04D
:1028700087FC0346184601F0D3FD0346BB8218E0EF
:1028800038694FF08A4101F07BFC0346184601F09D
:10289000C7FD0346FB823869474901F071FC0346D6
:1028A000184601F0BDFD0346BB8202E04FF0FF3346
:1028B00076E0FB8A1B0A9BB2DBB23B73FB8ADBB27E
:1028C0007B73BB8A1B0A9BB2DBB2BB73BB8ADBB2D6
:1028D000FB73FB7903F00103002B1CD007F10C0301
:1028E0004FF4EA7002211A46FEF73EFE0346002B23
:1028F00002D04FF0FF3353E007F10C0302334FF4E3
:10290000927002211A46FEF72FFE0346002B02D0DA
:102910004FF0FF3344E0FB7903F00203002B1CD09F
:1029200007F10C034FF4EC7002211A46FEF71CFE6F
:102930000346002B02D04FF0FF3331E007F10C03C8
:1029400002334FF4947002211A46FEF70DFE03463F
:10295000002B02D04FF0FF3322E0FB7903F0040399
:10296000002B1CD007F10C034FF4EE7002211A4625
:10297000FEF7FAFD0346002B02D04FF0FF330FE0C5
:1029800007F10C0302334FF4967002211A46FEF74A
:10299000EBFD0346002B02D04FF0FF3300E0002395
:1029A00018461837BD4680BD000048430000404629
:1029B0000000C045000040450000C04480B584B020
:1029C00000AF0346FB710023FB73FB7903F00103A7
:1029D000002B04D0FB7B43F03003DBB2FB73FB79AD
:1029E00003F00203002B04D0FB7B43F00C03DBB2AB
:1029F000FB73FB7903F00403002B04D0FB7B43F053
:102A00000303DBB2FB7307F10F034FF4A470012142
:102A10001A46FEF7A9FD034618461037BD4680BD8D
:102A200080B584B000AF0346FB71FB79002B02D167
:102A30000123FB7104E0FB79042B01D90423FB7112
:102A4000FB79013BDBB2FB7307F10F0340F24F1040
:102A500001211A46FEF788FD034618461037BD4689
:102A600080BD00BF80B584B000AF0346FB80FA880C
:102A70000C4BA3FB02139B08FB81FB891B0A9BB237
:102A8000DBB23B73FB89DBB27B7307F10C034FF4C2
:102A9000EF7002211A46FEF767FD0346184610370D
:102AA000BD4680BDCDCCCCCC80B584B000AF034654
:102AB000FB80FA880C4BA3FB02139B08FB81FB896C
:102AC0001B0A9BB2DBB23B73FB89DBB27B7307F162
:102AD0000C034FF4ED7002211A46FEF745FD034644
:102AE00018461037BD4680BDCDCCCCCC80B584B067
:102AF00000AF78600B467B807B68134A82FB031231
:102B00009211DB17D31A7A8802FB03F3FB60FB6890
:102B10001B16DBB23B72FB681B14DBB27B72FB68DB
:102B20001B12DBB2BB72FB68DBB2FB7207F108035E
:102B30004FF4AE7004211A46FEF716FD0346184600
:102B40001037BD4680BD00BFD34D621080B584B044
:102B500000AF0346FB80FA880C4BA3FB02139B08D3
:102B6000FB80FB881B0A9BB2DBB23B73FB88DBB2AA
:102B70007B7307F10C034FF4AD7002211A46FEF788
:102B8000F3FC034618461037BD4680BDCDCCCCCCF7
:102B900080B584B000AF0346FB80FA880C4BA3FBE2
:102BA00002139B08FB80FB881B0A9BB2DBB23B73C2
:102BB000FB88DBB27B7307F10C034FF4AC7002218E
:102BC0001A46FEF7D1FC034618461037BD4680BDB5
:102BD000CDCCCCCC80B586B000AF0346FB800223C1
:102BE0003B73CA237B73E323BB730923FB7307F196
:102BF0000C03682004211A46FEF7B6FCA3233B739E
:102C0000FB8803F04003002B06D0C0237B73C8234E
:102C1000BB73C223FB7305E0A3237B73A323BB73A6
:102C2000A323FB73FB8803F4C073002B06D0C423DB
:102C30003B74CC237B74C623BB7405E0A3233B7495
:102C4000A3237B74A323BB74A323FB74A3233B752F
:102C5000A3237B7507F10C0340F6A7200A211A462F
:102C6000FEF782FCFB8803F00303002B02D0202335
:102C70003B7301E0D8233B7307F10C0340F6B62009
:102C800001211A46FEF770FCFB8803F02003002B9D
:102C900003D0012000F0C6F802E0002000F0C2F8E6
:102CA000FB8803F4C073002B1DD0FB8803F48073F2
:102CB000002B08D0B2233B738B237B73B623BB73EB
:102CC0009B23FB7307E0B0233B7380237B73B42308
:102CD000BB739023FB7307F10C0340F6A220042181
:102CE0001A46FEF741FCFB8803F00103002B25D0B8
:102CF000F8233B7307F10C034FF40B6001211A46D4
:102D0000FEF732FC0720FA21FFF730FD0720FFF71E
:102D100055FE0120FFF784FE6420FFF7A3FE4FF469
:102D2000FA70FFF7C1FE3D48C821FFF7DFFE2820FB
:102D3000FFF70CFF0A20FFF72BFF09E0D8233B73B6
:102D400007F10C034FF40B6001211A46FEF70CFC4F
:102D5000FB8803F00203002B02D0D9233B7301E070
:102D6000D8233B7307F10C0340F23D7001211A4652
:102D7000FEF7FAFBFB8803F00403002B03D00120CD
:102D800000F084F802E0002000F080F8FB8803F0F7
:102D90001003002B03D0012000F0A0F802E0002077
:102DA00000F09CF8FB8843F008039AB21C4B5A8150
:102DB000FDF7B6FC1A4B00229A73FB8803F0400320
:102DC000002B05D0164B9B7B0633DAB2144B9A735B
:102DD000FB8803F4C073002B05D0114B9B7B06339B
:102DE000DAB20F4B9A73FB8803F01403002B05D063
:102DF0000B4B9B7B1033DAB2094B9A73FB8803F0C1
:102E00000303002B05D0064B9B7B0433DAB2044B43
:102E10009A73002318461837BD4680BD09E3CA02DD
:102E2000AC04002080B588B000AF0346FB71FB798D
:102E3000002B11D0134A07F114031068516803C323
:102E4000127A1A7007F114034FF4976009211A4699
:102E5000FEF78AFB034610E00B4A07F108031068EF
:102E6000516803C3127A1A7007F108034FF4976090
:102E700009211A46FEF778FB034618462037BD465F
:102E800080BD00BFAC520008B852000880B584B0C5
:102E900000AF0346FB71FB79002B08D0C0233B73C6
:102EA000C2237B73C423BB73C623FB7306E007F105
:102EB0000C0318468B21042201F006FB07F10C03DA
:102EC00040F6982004211A46FEF74EFBFDF728FC39
:102ED000034618461037BD4680BD00BF80B584B09C
:102EE00000AF0346FB71FB79002B08D020233B7316
:102EF00028237B733023BB733823FB7306E007F171
:102F00000C031846A321042201F0DEFA07F10C039A
:102F100040F69E2004211A46FEF726FBFDF700FC32
:102F2000034618461037BD4680BD00BF80B584B04B
:102F300000AF78607B6803331B7823F03F03FB739B
:102F40007B6803331B7803F03F03BB737B6801335B
:102F50001B7803F00103002B13D0BB7BDB087B73D2
:102F6000BB7B03F00703DBB201333B73104B1B68E1
:102F7000002B06D00E4B1B68797B3A7B0846114626
:102F800098477B6801331B7803F00803002B0AD0B5
:102F9000074B5B68002B06D0054B5B68FA7B9209F8
:102FA000D2B210469847002318461037BD4680BD60
:102FB000AC04002080B592B000AFF860B9607A60D0
:102FC0003B60002387F847303B6D00221A80AE4BF0
:102FD0009B7B1A4607F12003104619467A6DFEF7CF
:102FE00027F90346002B02D04FF0FF3348E1A64BF0
:102FF0005B8903F01403002B00F0868097F82030E3
:103000001A0697F821301B041A4397F822301B0246
:103010001A4397F823301A437B681A607B6804339D
:1030200097F82420110697F825201204114397F8E9
:1030300026201202114397F827200A431A607B6862
:10304000083397F82820110697F829201204114315
:1030500097F82A201202114397F82B200A431A608E
:103060007B680C3397F82C20110697F82D2012045A
:10307000114397F82E201202114397F82F200A438C
:103080001A6097F84730103387F847307B681B6821
:103090001B143B617B6804331B681B147B617B68DA
:1030A00008331B681B14BB617B680C331B681B1443
:1030B000FB613B693A6902FB03F27B69796901FBB9
:1030C00003F31A44BB69B96901FB03F31A44FB69B2
:1030D000F96901FB03F313443B643B6CB3F1706F7C
:1030E00003DB3B6CB3F1885F07DDFDF719FB3B6D3C
:1030F00000221A804FF0FF33C2E03B6D1B8843F47F
:1031000080739AB23B6D1A805F4B5B8903F040037A
:10311000002B4ED097F8473007F14800034413F8CE
:10312000283C1B029AB297F84730013307F1480157
:103130000B4413F8283C13439AB2BB681A80BB684F
:10314000023397F84720023207F14800024412F890
:10315000282C120291B297F84720033207F1480059
:10316000024412F8282C0A4392B21A80BB68043336
:1031700097F84720043207F148010A4412F8282C36
:10318000120291B297F84720053207F14800024435
:1031900012F8282C0A4392B21A8097F84730063367
:1031A00087F847303B6D1B8843F008039AB23B6DAC
:1031B0001A80354B5B8903F4C073002B4ED097F80F
:1031C000473007F148010B4413F8283C1B029AB220
:1031D00097F84730013307F14800034413F8283CBF
:1031E00013439AB2FB681A80FB68023397F84720B2
:1031F000023207F148010A4412F8282C120291B257
:1032000097F84720033207F14800024412F8282CAF
:103210000A4392B21A80FB68043397F847200432BD
:1032200007F148010A4412F8282C120291B297F8CB
:103230004720053207F14800024412F8282C0A43BF
:1032400092B21A8097F84730063387F847303B6DC3
:103250001B8843F070039AB23B6D1A800A4B5B895E
:1032600003F00303002B07D097F8473007F1200243
:1032700013441846FFF75AFE3868FDF781F800231B
:1032800018464837BD4680BDAC04002080B487B0E6
:1032900000AF7860396000237B6100233B6100232D
:1032A000FB6000237B6176E07B69012202FA03F375
:1032B0003B613B681A683B691340FB60FA683B69F5
:1032C0009A4265D17B681A687B695B00032101FA29
:1032D00003F3DB431A407B681A607B681A683B681B
:1032E0001B7919467B695B0001FA03F31A437B687B
:1032F0001A603B681B79012B03D03B681B79022BBA
:103300002ED17B689A687B695B00032101FA03F385
:10331000DB431A407B689A607B689A683B685B79FC
:1033200019467B695B0001FA03F31A437B689A60D4
:103330007B685A687B699BB2012101FA03F3DB4386
:103340001A407B685A607B685A683B689B791946CB
:103350007B699BB201FA03F39BB21A437B685A6004
:103360007B68DA687B699BB25B00032101FA03F397
:10337000DB431A407B68DA607B68DA683B68DB799C
:1033800019467B695B0001FA03F31A437B68DA6034
:103390007B6901337B617B690F2B85D91C37BD4667
:1033A0005DF8047B704700BF80B485B000AF7860E3
:1033B00013460A467A807B700023FB600023BB60C3
:1033C0007A787B8803F007039B0002FA03F3FB6023
:1033D0007B88DB089BB21A467B88DB089BB21946C8
:1033E0007B68083153F821107B8803F007039B00AA
:1033F0000F2000FA03F3DB4319407B68083243F8DF
:1034000022107B88DB089BB21A467B68083253F88F
:103410002220FB681343BB607B88DB089BB21A4603
:103420007B680832B96843F822101437BD465DF84E
:10343000047B7047ABBE00F002B800207047002A42
:1034400000F0018010600120704706980188044A4E
:10345000914240F00380043006907047FEE7000080
:10346000ABBE000080B586B000AF4FF40010012164
:10347000FEF7AEFC02200121FEF78CFCC0233B616D
:1034800002233B7502237B750123BB750123FB756A
:1034900007F1100316481946FFF7F8FE14480621F5
:1034A0000422FFF781FF124807210422FFF77CFF67
:1034B000104B3B600023BB804BF6FF73FB80002367
:1034C0003B8100237B814FF48043BB810A4800216C
:1034D00000F0AAFA3B460848194600F0E3F906480E
:1034E000012100F0A1FA002318461837BD4680BD1F
:1034F00000040240A08601000054004090B585B051
:1035000000AF3B600346FB710B46BB7113467B71FA
:10351000FB795B00DBB218460021012200F078F84D
:10352000BB79184600F0F8F8FB795B00DBB218466F
:103530000121012200F06CF80023FB7316E0FA7BF6
:103540007B79013B9A4207D1FB7B3A68D41800F0A3
:103550003DF90346237006E0FB7B3A68D41800F07F
:1035600003F903462370FB7B0133FB73FA7B7B7902
:103570009A42E4D3002318461437BD4690BD00BFDD
:1035800080B584B000AF3B600346FB710B46BB7156
:1035900013467B710023BB737B79012B13D1FB791D
:1035A0005B00DBB218460021002200F031F8BB7945
:1035B000184600F0B1F83B681B78184600F0ACF8EC
:1035C00000F03EF91EE0FB795B00DBB218460021FB
:1035D000002200F01DF8BB79184600F09DF800238A
:1035E000FB7309E0FB7B3A6813441B78184600F034
:1035F00093F8FB7B0133FB73FA7B7B799A42F1D31F
:1036000000F01EF9002318461037BD4680BD00BFEC
:1036100080B582B000AF13460246FA710A46BA710D
:103620007B713A4B394A128892B242F4807292B25C
:103630001A80374B44F620621A600AE0344B1B684C
:103640005A1E334B1A60324B1B68002B01D10123E9
:1036500056E02E4B9B8A9BB203F00103002BEDD06A
:103660007B79002B07D0294B284A128892B242F46A
:10367000806292B21A80BB79002B1ED1234BFA795B
:1036800092B222F0010292B21A82214B44F62062D9
:103690001A600AE01E4B1B685A1E1D4B1A601C4B19
:1036A0001B68002B01D101232AE0184B9B8A9BB297
:1036B00003F00203002BEDD01FE0BB79012B1CD1DE
:1036C000124BFA7942F00102D2B21A82104B44F640
:1036D00020621A600AE00E4B1B685A1E0C4B1A60DF
:1036E0000B4B1B68002B01D1012309E00748094956
:1036F00000F0BAF90346002BEDD0044B1B8B0023DE
:103700001BB218460837BD4680BD00BF00540040BC
:10371000BC0400200200030080B483B000AF034665
:10372000FB710F4B44F620621A6004E00C4B1B68DF
:103730005A1E0B4B1A600B4B9B8A9BB203F0800303
:10374000002B03D1064B1B68002BEFD1054BFA79F8
:1037500092B21A820C37BD465DF8047B704700BFF9
:10376000BC0400200054004080B582B000AF144B70
:10377000134A128892B242F4806292B21A80114BBC
:1037800044F620621A600AE00E4B1B685A1E0D4B6D
:103790001A600C4B1B68002B01D101230BE0084879
:1037A000094900F061F90346002BEDD0044B1B8A58
:1037B0009BB2FB71FB7918460837BD4680BD00BF40
:1037C00000540040BC0400204000030080B582B0DB
:1037D00000AF184B174A128892B222F4806292B25C
:1037E0001A80144B134A128892B242F4007292B2B9
:1037F0001A80114B44F620621A600AE00E4B1B68D7
:103800005A1E0D4B1A600C4B1B68002B01D1012373
:103810000BE00848094900F027F90346002BEDD0DA
:10382000044B1B8A9BB2FB71FB7918460837BD46D7
:1038300080BD00BF00540040BC04002040000300D5
:1038400080B400AF154B44F620621A600AE0134BB7
:103850001B685A1E114B1A60104B1B68002B01D1BC
:10386000012316E00E4B9B8A9BB203F08003002BD2
:10387000EDD00B4B9B8A9BB203F00403002BE6D0E8
:10388000074B074A128892B242F4007292B21A8031
:1038900000231846BD465DF8047B7047BC04002039
:1038A0000054004080B58AB000AF786039600023D2
:1038B000FB8400237B840423BB84574BFB617B6820
:1038C0009B88FB84FB8C23F03F03FB8407F10C03F4
:1038D0001846FEF7B5F97B69FB61FA694F4BA3FB0C
:1038E00002139B0C7B84FA8C7B8C1343FB847B68D8
:1038F000FA8C9A807B681B889BB223F001039AB2F2
:103900007B681A800023FB843B681A68444B9A4208
:1039100015D83B681B685B00FA69B2FBF3F3BB8404
:10392000BB8C032B01D80423BB84FA8CBB8C1343C0
:10393000FB847B8C01339AB27B681A8440E03B683D
:10394000DA884BF6FF739A4209D13B681A6813462E
:103950005B001344FA69B2FBF3F3BB840EE03B68EF
:103960001A6813469B0013449A001344FA69B2FB89
:10397000F3F3BB84BB8C43F48043BB84BB8CC3F3A5
:103980000B03002B03D1BB8C43F00103BB84BA8C27
:10399000FB8C13439BB26FEA43436FEA5343FB84B0
:1039A0007B8C4FF4967202FB03F31E4A82FB0312D8
:1039B0009211DB17D31A9BB201339AB27B681A8437
:1039C0007B68FA8C9A837B681B889BB243F0010367
:1039D0009AB27B681A807B681B88FB84FB8C23F47B
:1039E000816323F00203FB843B689A883B685B8910
:1039F00013439AB2FB8C1343FB847B68FA8C1A80C6
:103A00003B689A893B681B8913439AB27B681A8189
:103A10002837BD4680BD00BF00127A0083DE1B43FD
:103A2000A0860100D34D621080B483B000AF7860EF
:103A30000B46FB70FB78002B08D07B681B889BB281
:103A400043F001039AB27B681A8007E07B681B8809
:103A50009BB223F001039AB27B681A800C37BD46F3
:103A60005DF8047B704700BF80B487B000AF78601A
:103A7000396000233B610023FB600023BB6000230F
:103A8000FB757B689B8A9BB2FB607B681B8B9BB240
:103A9000BB60BB681B04BB60FA68BB68134323F0C0
:103AA0007F433B613A693B681A403B689A4202D1C6
:103AB0000123FB7501E00023FB75FB7D18461C37D5
:103AC000BD465DF8047B704780B485B000AF786078
:103AD0000023FB60324BFB607B689B79002B4DD051
:103AE0002F4B2F4A11687A681268D2430A401A6035
:103AF0002B4B2B4A51687A681268D2430A405A60AD
:103B00007B681B79FA681344FB60FB68FA681168EC
:103B10007A6812680A431A60214B214A91687A68D0
:103B20001268D2430A409A601D4B1D4AD1687A68D8
:103B30001268D2430A40DA607B685B79102B0ED1A1
:103B4000174B174A91687A6812680A439A60144BB7
:103B5000134AD1687A6812680A43DA601BE0104B96
:103B6000FB607B685B79FA681344FB60FB68FA686A
:103B700011687A6812680A431A600CE07B681B7946
:103B8000FA681344FB60FB68FA6811687A68126887
:103B9000D2430A401A601437BD465DF8047B704773
:103BA000003C014080B485B000AF78600023FB7317
:103BB0000023BB600C4B1A687B681340BB600A4B48
:103BC0005A697B681340002B05D0BB68002B02D0DC
:103BD0000123FB7301E00023FB73FB7B18461437C2
:103BE000BD465DF8047B7047003C014080B483B063
:103BF00000AF7860034B7A685A610C37BD465DF8B8
:103C0000047B7047003C014080B485B000AF786011
:103C10000023FB730023BB730F237B737B68DB786C
:103C2000002B37D0254BDB68DB4303F4E0631B0A32
:103C3000FB73FB7BC3F10403BB737A7BFB7B42FA10
:103C400003F37B737B685B781A46BB7B02FA03F352
:103C5000FB737B689A787B7B1340DAB2FB7B134360
:103C6000FB73FB7B1B01FB73154A7B681B781344BA
:103C7000FA7B83F80023124B7A6812785209D2B289
:103C80007968097801F01F01012000FA01F143F879
:103C900022100EE00A4B7A6812785209D2B2796883
:103CA000097801F01F01012000FA01F1203243F8E8
:103CB00022101437BD465DF8047B704700ED00E02C
:103CC00000E100E080B485B000AF78603960002387
:103CD000FB817B681B88FB817A68284B9A4213D052
:103CE0007A68274B9A420FD07B68B3F1804F0BD094
:103CF0007A68244B9A4207D07A68234B9A4203D0C1
:103D00007A68224B9A4208D1FB8923F07003FB8129
:103D10003B685A88FB891343FB817A681C4B9A42A3
:103D20000CD07A681B4B9A4208D0FB8923F440736D
:103D3000FB813B681A89FB891343FB817B68FA8905
:103D40001A803B685A687B68DA623B681A887B682D
:103D50001A857A68094B9A4203D07A68084B9A42CE
:103D600004D13B689B7A1A467B681A867B680122DD
:103D70009A821437BD465DF8047B7047000001400D
:103D8000000401400004004000080040000C004016
:103D9000001000400014004080B483B000AF786091
:103DA0000B46FB70FB78002B08D07B681B889BB20E
:103DB00043F001039AB27B681A8007E07B681B8896
:103DC0009BB223F001039AB27B681A800C37BD4680
:103DD0005DF8047B704700BF80B483B000AF7860AB
:103DE00013460A467A807B707B78002B08D07B686C
:103DF0009B899AB27B8813439AB27B689A8109E0C7
:103E00007B689B899AB27B88DB439BB213409AB252
:103E10007B689A810C37BD465DF8047B704700BF14
:103E200080B485B000AF78600B467B800023FB73C5
:103E30000023BB8100237B817B681B8A9AB27B882D
:103E40001340BB817B689B899AB27B8813407B813E
:103E5000BB89002B05D07B89002B02D00123FB738B
:103E600001E00023FB73FB7B18461437BD465DF869
:103E7000047B704780B483B000AF78600B467B80D2
:103E80007B88DB439AB27B681A820C37BD465DF8AB
:103E9000047B704780B500AF1020FFF783FE034618
:103EA000002B05D0034B1B6898471020FFF79EFEA0
:103EB00080BD00BFC004002080B483B000AF786034
:103EC000044B7A681A60002318460C37BD465DF82B
:103ED000047B7047C004002080B586B000AF02208C
:103EE0000121FDF757FF4FF480400121FDF78EFFC0
:103EF00000233B750023BB7510233B610123FB7539
:103F000003237B7507F1100314481946FFF7BEF928
:103F100001200421FCF76AF91023BB600123BB7365
:103F200000233B730C237B7307F108031846FFF74C
:103F3000CBFD0A233B7100237B710023BB7101235E
:103F4000FB713B1D1846FFF75FFE054B00221A6010
:103F5000002318461837BD4680BD00BF000402404C
:103F6000C004002080F0004002E000BF81F000416A
:103F700042001FBF5FEA410392EA030F7FEA226C0F
:103F80007FEA236C6AD04FEA1262D2EB1363C1BF9F
:103F9000D218414048404140B8BF5B42192B88BF0E
:103FA000704710F0004F40F4000020F07F4018BF31
:103FB000404211F0004F41F4000121F07F4118BF51
:103FC000494292EA030F3FD0A2F1010241FA03FCF9
:103FD00010EB0C00C3F1200301FA03F100F00043E1
:103FE00002D5494260EB4000B0F5000F13D3B0F1A9
:103FF000807F06D340084FEA310102F10102FE2A18
:1040000051D2B1F1004F40EBC25008BF20F0010087
:1040100040EA03007047490040EB000010F4000F35
:10402000A2F10102EDD1B0FA80FCACF1080CB2EBC8
:104030000C0200FA0CF0AABF00EBC2505242184327
:10404000BCBFD0401843704792F0000F81F40001CC
:1040500006BF80F400000132013BB5E74FEA41039F
:104060007FEA226C18BF7FEA236C21D092EA030F0B
:1040700004D092F0000F08BF0846704790EA010F85
:104080001CBF0020704712F07F4F04D1400028BFB2
:1040900040F00040704712F100723CBF00F5000094
:1040A000704700F0004343F0FE4040F400007047CA
:1040B0007FEA226216BF08467FEA23630146420276
:1040C00006BF5FEA412390EA010F40F48000704789
:1040D0004FF0000304E000BF10F0004348BF40422F
:1040E0005FEA000C08BF704743F0964301464FF06B
:1040F00000001CE050EA010208BF70474FF00003C7
:104100000AE000BF50EA010208BF704711F0004307
:1041100002D5404261EB41015FEA010C02BF8446D7
:104120000146002043F0B64308BFA3F18053A3F536
:104130000003BCFA8CF2083AA3EBC25310DB01FA7D
:1041400002FC634400FA02FCC2F12002BCF1004F01
:1041500020FA02F243EB020008BF20F00100704792
:1041600002F1200201FA02FCC2F1200250EA4C00E6
:1041700021FA02F243EB020008BF20EADC7070472C
:104180004FF0FF0C1CEAD0521EBF1CEAD15392EA3A
:104190000C0F93EA0C0F6FD01A4480EA010C400216
:1041A00018BF5FEA41211ED04FF0006343EA501070
:1041B00043EA5111A0FB01310CF00040B1F5000FB2
:1041C0003EBF490041EAD3715B0040EA010062F161
:1041D0007F02FD2A1DD8B3F1004F40EBC25008BF4B
:1041E00020F00100704790F0000F0CF0004C08BF69
:1041F00049024CEA502040EA51207F3AC2BFD2F136
:10420000FF0340EAC250704740F400004FF0000343
:10421000013A5DDC12F1190FDCBF00F0004070477D
:10422000C2F10002410021FA02F1C2F1200200FABB
:1042300002FC5FEA310040F1000053EA4C0308BF82
:1042400020EADC70704792F0000F00F0004C02BFD3
:10425000400010F4000F013AF9D040EA0C0093F04E
:10426000000F01F0004C02BF490011F4000F013BA8
:10427000F9D041EA0C018FE70CEAD15392EA0C0F16
:1042800018BF93EA0C0F0AD030F0004C18BF31F081
:10429000004CD8D180EA010000F00040704790F057
:1042A000000F17BF90F0004F084691F0000F91F0FB
:1042B000004F14D092EA0C0F01D142020FD193EAC1
:1042C0000C0F03D14B0218BF084608D180EA010049
:1042D00000F0004040F0FE4040F40000704740F025
:1042E000FE4040F4400070474FF0FF0C1CEAD052F3
:1042F0001EBF1CEAD15392EA0C0F93EA0C0F69D04F
:10430000A2EB030280EA010C49024FEA402037D0B9
:104310004FF0805343EA111143EA10130CF00040B0
:104320008B4238BF5B0042F17D024FF4000C8B42A0
:1043300024BF5B1A40EA0C00B3EB510F24BFA3EB80
:10434000510340EA5C00B3EB910F24BFA3EB910350
:1043500040EA9C00B3EBD10F24BFA3EBD10340EAAA
:10436000DC001B0118BF5FEA1C1CE0D1FD2A3FF6F0
:1043700050AF8B4240EBC25008BF20F001007047A5
:104380000CF0004C4CEA50207F32C2BFD2F1FF0348
:1043900040EAC250704740F400004FF00003013A79
:1043A00037E792F0000F00F0004C02BF400010F41D
:1043B000000F013AF9D040EA0C0093F0000F01F031
:1043C000004C02BF490011F4000F013BF9D041EA53
:1043D0000C0195E70CEAD15392EA0C0F08D1420286
:1043E0007FF47DAF93EA0C0F7FF470AF084676E759
:1043F00093EA0C0F04D14B023FF44CAF08466EE732
:1044000030F0004C18BF31F0004CCAD130F00042FF
:104410007FF45CAF31F000437FF43CAF5FE700BF57
:1044200042000ED2B2F1FE4F0BD34FF09E03B3EB1E
:10443000126209D44FEA002343F0004323FA02F04A
:1044400070474FF00000704712F1610F01D1420236
:1044500002D14FF0FF3070474FF00000704700BFAF
:10446000032A70B428D940EA01039B0713D00578CA
:104470000C78A54224D1013A002305E010F8015F31
:1044800011F8014FA5421BD1934203F10103F5D16D
:10449000002070BC70470C46034625681E68AE427B
:1044A0002146184604F1040403F1040304D1043A3C
:1044B000032A18462146F0D8002AD8D11046E8E74A
:1044C000281B70BC704700BFF0B4840743D0541E53
:1044D000002A3ED0CDB2034603E0621E002C38D045
:1044E000144603F8015B9A07F7D1032C2AD9CDB201
:1044F00045EA05250F2C45EA054515D9A4F1100715
:104500003F0903F1100606EB07161A4615605560C1
:104510009560D5601032B242F8D104F00F04013733
:10452000032C03EB07130DD91E462246043A032A37
:1045300046F8045BFAD8221F22F003020432134427
:1045400004F003042CB1C9B21C4403F8011BA342BC
:10455000FBD1F0BC704714460346C6E775191A0C28
:104560006A231B1C00001F207274433B4138393AF8
:10457000006B6C376F06246D6E70000068000004DD
:1045800076005401F7FD00018300000000080000E0
:104590000001001832000500000020410000D24256
:1045A000295C0F3E9A99993E3333733F295C0F3E45
:1045B00073616D706C65202564200A006779726FE5
:1045C00020667372202564200A0000006163636521
:1045D0006C20667372202564200A0000646D7020D0
:1045E00025640A006779726F646D70203D20256430
:1045F000202C202564202C202564200A00000000A7
:10460000616363656C646D70203D202564202C20FF
:104610002564202C202564200A0000007175617437
:10462000646D7020773D25642000000020783D25D2
:104630006420000020793D2564200000207A3D257B
:1046400064200A006779726F203D202564202C20A9
:104650002564202C202564200A0000006163636526
:104660006C203D202564202C202564202C202564EE
:10467000200A0000737464696F2E633A20696E63C8
:104680007265617365204D41585F535452494E47DE
:104690005F53495A450A0D000000700000000024D5
:1046A000000000020003000000650054FFEF00005E
:1046B000FA80000B12820001030C30C30E8C8CE9CF
:1046C00014D5400213710F8E3883F8833000F883BD
:1046D000258EF8833000F883FFFFFFFF0FFEA9D679
:1046E000240004001A8279A10000003CFFFF0000B2
:1046F0000010000038836FA2003E0330400000002D
:1047000002CAE3093E800000200000000000000013
:104710004000000060000000000C0000000C186E5B
:10472000000006920A16C0DFFFFF0256FD8CD37709
:10473000FFE1C496E0C5BEAA00000000FFFF0B2BFE
:1047400000001657000003594000000000001DFA49
:1047500000026C1D000000003FFFDFEB003EB3B61F
:10476000000D227800002F3C00000000001942B527
:10477000000039A20000B365D90E9FC91DCF4C348B
:1047800030000000500000003BB67AE800640000F2
:1047900000C8000000000000100000001000FA92A5
:1047A0001000225E000D229F000100000032000078
:1047B000FF46000063D400001000000004D6000093
:1047C00004CC000004CC0000000010720000004087
:1047D00000000000000000000006000200050007C5
:1047E0000000000000640000000000000000000560
:1047F0000005006400200000000000000000000030
:10480000000040000000030000000032F8980000A3
:10481000FF650000830F0000FF9BFC00000000000C
:104820000000000000000000000000000000000088
:104830000000000000000000000000000000000078
:104840000000000000001000400000000000000612
:104850000000B26A000200000001FB830068000053
:1048600000D9FC007CF1FF8300000000006500001F
:10487000006403E800640028000000250000000038
:1048800016A000000000100000001000002F000023
:10489000000001F40000100000280000FFFF458127
:1048A000FFFFFA7200000000000000000044000555
:1048B0000005BAC6004778A2000000010000000011
:1048C00000000600000000140000254D002F706D50
:1048D000000005AE000C02D0000000000000000047
:1048E0000000000000000000001B000000000000AD
:1048F000000000000000000000640000000800004C
:1049000000000000000000000000000000000000A7
:104910000000000000000000000000000000000097
:104920000000000000000000000000000000000087
:104930000000000000000000000000000000000077
:104940000000000000000000000000000000000067
:104950000000000000000000001B0000000000003C
:1049600000000000000E000E00000AC70004000056
:1049700000000032FFFFFF9C00000B2B0000000234
:104980000000000100000064FFE5000000000000DE
:104990000000000000000000000000010000000016
:1049A0000001000000000000000180000001800004
:1049B00000018000002426D3000000000000000059
:1049C000000600100096003C0000000000000000FF
:1049D00000000000000000000C0A4E68CDCF7709EF
:1049E00050166759C619CE82000000000000000072
:1049F00000000000000000000000000000000000B7
:104A000017D7840003000000000000000000000031
:104A1000C7938F9D1E1B1C190000000000000000A2
:104A20000000000000000000000000000000000086
:104A3000020318850000400000000003000000038E
:104A40000000000000000000400000000000000026
:104A50000000000000000000000000000000000056
:104A60000000000000000000000000000000000046
:104A7000000000000000000000000000677DDF7EF5
:104A800072902E554CF6E6880000000000000000F1
:104A90000000000000000000D8DCB4B8B0D8B9AB0A
:104AA000F3F8FAB3B7BB8E9EAEF132F51BF1B4B892
:104AB000B08097F1A9DFDFDFAADFDFDFF2AAC5CD83
:104AC000C7A90CC92C97F1A989264666B28999A96C
:104AD0002D557DB0B08AA896365676F1BAA3B4B2F9
:104AE00080C0B8A89711B28398BAA3F024084410E4
:104AF0006418B2B9B49883F1A329557DBAB5B1A3AE
:104B00008393F0002850F5B2B6AA839328547CF121
:104B1000B9A3829361BAA2DADEDFDB819AB9AEF57E
:104B2000606870F1DABAA2DFD9BAA2FAB9A38292A8
:104B3000DB31BAA2D9BAA2F8DF85A4D0C1BBAD835C
:104B4000C2C5C7B8A2DFDFDFBAA0DFDFDFD8D8F188
:104B5000B8AAB38DB4980D355DB2B6BAAF8C9619BC
:104B60008F9FA70E161EB49AB8AA872C547CBAA49D
:104B7000B08AB691325676B28494A4C808CDD8B81B
:104B8000B4B0F19982A82D557D98A80E161EA22CBE
:104B9000547C92A4F02C5078F184A898C4CDFCD811
:104BA0000DDBA8FC2DF3D9BAA6F8DABAA6DED8BA7E
:104BB000B2B68696A6D0F3C841DAA6C8F8D8B0B483
:104BC000B882A892F52C548898F135D9F418D8F108
:104BD000A2D0F8F9A884D9C7DFF8F883C5DADF696D
:104BE000DF83C1D8F40114F1A8824EA884F311D157
:104BF00082F5D992289788F109F41C1CD884A8F36F
:104C0000C0F9D1D99782F129F40DD8F3F9F9D1D9A6
:104C100082F4C203D8DEDF1AD8F1A2FAF9A8849888
:104C2000D9C7DFF8F8F883C7DADF69DFF883C3D8BC
:104C3000F40114F198A8822EA884F311D182F5D939
:104C400092509788F109F41CD884A8F3C0F8F9D1E0
:104C5000D99782F149F40DD8F3F9F9D1D982F4C486
:104C600003D8DEDFD8F1AD8898CCA809F9D98292B3
:104C7000A8F57CF1883ACF944A6E98DB6931DAADB9
:104C8000F2DEF9D88795A8F221D1DAA5F9F417D97F
:104C9000F1AE8ED0C0C3AE82C684C3A88595C8A528
:104CA00088F2C0F1F4010EF18E9EA8C63E56F5546E
:104CB000F18872F40115F19845856EF58E9E048891
:104CC000F142985A8E9E068869F4011CF1981E11D3
:104CD00008D0F504F11E970202983625DBF9D98534
:104CE000A5F3C1DA85A5F3DFD88595A8F309DAA580
:104CF000FAD88292A8F578F1881A849F268898219C
:104D0000DAF41DF3D8879F39D1AFD9DFDFFBF9F48F
:104D10000CF3D8FAD0F8DAF9F9D0DFD9F9D8F40BD6
:104D2000D8F3879F39D1AFD9DFDFF41DF3D8FAFC70
:104D3000A869F9F9AFD0DADEFAD9F88F9FA8F1CCDB
:104D4000F398DB45D9AFDFD0F8D8F18F9FA8CAF32D
:104D50008809DAAF8FCBF8D8F2AD978D0CD9A5DFE3
:104D6000F9BAA6F3FAF412F2D8950DD1D9BAA6F38E
:104D7000FADAA5F2C1BAA6F3DFD8F1BAB2B68696CE
:104D8000A6D0CAF349DAA6CBF8D8B0B4B8D8AD8467
:104D9000F2C0DFF18FCBC3A8B2B68696C8C1CBC331
:104DA000F3B0B48898A821DB718D9D71859521D9C8
:104DB000ADF2FAD88597A828D9F408D8F28D29DA67
:104DC000F405D9F285A4C2F2D8A88D9401D1D9F402
:104DD00011F2D88721D8F40AD8F28498A8C801D152
:104DE000D9F411D8F3A4C8BBAFD0F2DEF8F8F8F8C4
:104DF000F8F8F8F8D8F1B8F6B5B9B08A95A3DE3C62
:104E0000A3D9F8D85CA3D9F8D87CA3D9F8D8F8F9F5
:104E1000D1A5D9DFDAFAD8B18530F7D9DED8F830A4
:104E2000ADDADED8F2B48C99A32D557DA083DFDFF7
:104E3000DFB591A0F629D9FBD8A0FC29D9FAD8A0D2
:104E4000D051D9F8D8FC51D9F9D879D9FBD8A0D00C
:104E5000FC79D9FAD8A1F9F9F9F9F9A0DADFDFDF9D
:104E6000D8A1F8F8F8F8F8ACDEF8ADDE8393AC2CF6
:104E7000547CF1A8DFDFDFF69D2CDAA0DFD9FADB66
:104E80002DF8D8A850DAA0D0DED9D0F8F8F8DB5544
:104E9000F8D8A878DAA0D0DFD9D0FAF8F8F8F8DB9B
:104EA0007DF8D89CA88CF530DB38D9D0DEDFA0D0D7
:104EB000DEDFD8A848DB58D9DFD0DEA0DFD0DED8CF
:104EC000A868DB70D9DFDFA0DFDFD8F1A888902CDD
:104ED000547C98A8D05C38D1DAF2AE8CDFF9D8B027
:104EE00087A8C1C1B188A8C6F9F9DA36D8A8F9DA15
:104EF00036D8A8F9DA36D8A8F9DA36D8A8F9DA36E1
:104F0000D8F78D9DADF818DAF2AEDFD8F7ADFA30EC
:104F1000D9A4DEF9D8F2AEDEFAF983A7D9C3C5C7A2
:104F2000F1889BA77AADF7DEDFA4F8849408A797F1
:104F3000F300AEF29819A488C6A39488F632DFF283
:104F40008393DB09D9F2AADFD8D8AEF8F9D1DAF326
:104F5000A4DEA7F1889B7AD8F38494AE19F9DAAA73
:104F6000F1DFD8A881C0C3C5C7A39283F628ADDE00
:104F7000D9F8D8A350ADD9F8D8A378ADD9F8D8F8D6
:104F8000F9D1A1DADEC3C5C7D8A18194F818F2B06F
:104F900089ACC3C5C7F1D8B8B4B09786A8319B0611
:104FA0009907AB9728889BF00C201440B0B4B8F058
:104FB000A88A9A285078B79BA82951792470594417
:104FC0006938644831F1BBAB88002C547CF0B38B5A
:104FD000B8A804285078F1B088B49726A85998BB8F
:104FE000ABB38B02264666B0B8F08A9CA8295179EB
:104FF0008B2951798A2470598B2058718A446938D9
:105000008B3940688A6448318B30496088F1AC0044
:105010002C547CF08CA804285078F1889726A85945
:1050200098AC8C02264666F0899CA8295179247098
:1050300059446938644831A98809205970AB11383E
:105040004069A8193148608CA83C415C207C00F183
:1050500087981986A86E767EA999882D557DD8B136
:10506000B5B9A3DFDFDFAED0DFAAD0DEF2ABF8F94F
:10507000D9B087C4AAF1DFDFBBAFDFDFB9D8B1F1A8
:10508000A3978E60DFB084F2C8F8F9D9DED8938593
:10509000F14AB183A308B5839A0810B79F10D8F1DD
:1050A000B0BAAEB08AC2B2B68E9EF1FBD9F41DD8AA
:1050B000F9D90CF1D8F8F8AD61D9AEFBD8F40CF100
:1050C000D8F8F8AD19D9AEFBDFD8F416F1D8F8ADA1
:1050D0008D61D9F4F4ACF59C9C8DDF2BBAB6AEFA99
:1050E000F8F40BD8F1AED0F8AD51DAAEFAF8F1D849
:1050F000B9B1B6A3839C08B9B1839AB5AAC0FD30F3
:1051000083B79F10B58B93F20202D1ABDADED8F1F0
:10511000B080BAABC0C3B284C1C3D8B1B9F38BA35A
:1051200091B609B4D9ABDEB0879CB9A3DDF1B38BDE
:105130008B8B8B8BB087A3A3A3A3B28BB69BF2A35D
:10514000A3A3A3A3A3A3A3A3A3F1B087B59AA3F397
:105150009BA3A3DCBAACDFB9A3A3A3A3A3A3A3A37C
:10516000A3A3A3A3A3A3A3A3D8D8D8BBB3B7F1AADF
:10517000F9DAFFD9809AAA28B48098A720B7978730
:10518000A86688F07951F1902C870CA781976293DB
:10519000F071716085940129517990A5F1284C6CCA
:1051A000870C95188578A38390284C6C886CD8F36D
:1051B000A28200F210A8921980A2F2D926D8F18812
:1051C000A84DD948D896A83980D93CD89580A83917
:1051D000A68698D92CDA87A72CD8A8899519A980F2
:1051E000D938D8A88939A980DA3CD8A82EA839900E
:1051F000D90CD8A8953198D90CD8A809D9FFD801CD
:10520000DAFFD89539A9DA26FFD890A80D8999A890
:1052100010809821DA2ED88999A83180DA2ED8A862
:1052200086963180DA2ED8A8873180DA2ED8A882E7
:1052300092F34180F1D92ED8A882F31980F1D92EAA
:10524000D882ACF3C0A28022F1A62EA72EA9229864
:10525000A829DAACDEFFD8A2F22AF1A92E8292A800
:10526000F23180A696F1D900AC8C9C0C30ACDED02B
:10527000DEFFD88C9CACD010ACDE8092A2F24C82C7
:10528000A8F1CAF235F19688A6D900D8F1FF00043A
:105290004CCD6C000CC92C003656760026466600B4
:1052A000FEF2ABC4AAF1DFDFBBAFDFDFB8AAB38D7C
:1052B000B4980D355D000000B8AAAAAAB088C3C58D
:1052C000C7000000D8B1B9F38BA391B609B4D900D7
:0C52D000DAB1B9F38BA391B6DAB4DA00BE
:1052DC005C4500087C450008000000000000000050
:1052EC0000000000000000000000000000000000B2
:1052FC00000000000000000088450008FF000000CE
:10530C00FF00000001000000000000000102030487
:10531C000102030406070809000000000000000059
:10532C000100000000000000000000000000000070
:10533C000000000000000000000000000000000061
:10534C000000000000000000000000000000000051
:10535C000000000000000000000000000000000041
:10536C000000000000000000000000000000000031
:08574C004800002000000000ED
:0400000508000000EF
:00000001FF
